S0150000626C655F6D616769635F77616E642E73333743
S315080120000010002059510108F92E0408F92E040878
S31508012010F92E0408F92E0408F92E0408F92E0408E5
S31508012020F92E0408F92E0408F92E0408F92E0408D5
S31508012030F92E0408AC4E0508FF260408F92E0408F3
S31508012040F92E0408F92E0408F92E0408F92E0408B5
S31508012050F92E0408F92E0408F92E0408F92E0408A5
S31508012060F92E0408F92E0408F92E04089D3F0108E3
S31508012070F7270408F92E0408F92E040865590108FA
S31508012080F92E0408F92E0408F92E0408F92E040875
S31508012090F92E040899840108F92E0408F92E040872
S315080120A0F92E04089986010875860108F92E04088F
S315080120B0F92E0408CDB5030859C0030867DD0408DD
S315080120C063DD040801B8030873DD04086BDD040841
S315080120D031C003086FDD040899C0030805C1030868
S315080120E0F92E0408F92E0408F92E0408F92E040815
S315080120F0B5460408F92E0408F92E0408F92E040831
S31508012100F92E0408F92E0408F92E0408F92E0408F4
S31508012110F92E0408F92E0408F92E0408F92E0408E4
S31508012120F92E0408F92E0408F92E0408F92E0408D4
S31508012130F92E0408F92E0408F92E0408F92E0408C4
S31508012140F92E0408F92E0408F92E0408814A040810
S31508012150659E0308F92E0408F9D90408FFD904086D
S31508012160F92E0408F92E0408F92E0408F92E040894
S31508012170013800D0FCE77047D0B51BA7D7E900673F
S315080121802DED028B04469FED1A8AD4ED007AF4EE02
S31508012190C87AF1EE10FA0EDA13A7D7E900679FEDB0
S315080121A0158AD4ED007AF4EEC87AF1EE10FA0ED457
S315080121B0BDEC028BD0BD17EE900A2CF06BFE3246B1
S315080121C03B462CF007FD2DF07FF92060DDE717EE81
S315080121D0900A2CF05FFE32463B462CF0FDFC2DF0B2
S315080121E073F92060DDE700BF182D4454FB2119401F
S315080121F0DB0F4940DB0F49C038B50022164B51ECBD
S31508012200100B2CF09FFE10A3D3E9002304460D46BC
S315080122102DF028F970B90EA3D3E9002320462946E3
S315080122202DF002F958B9204629462DF083FC00EE17
S31508012230100A38BD47F6FF3300EE103AF9E74FF6B4
S31508012240FF33F9E7AFF300800000000000FCEF4020
S315080122500000000000FCEFC00000E04000000000A4
S31508012260002370B5404C05468AB0E36318B100886F
S31508012270236014F037FF3D483BF0F3F83C4E3D4BE5
S31508012280304633603C4B736036F0CCFD0021304656
S3150801229023F024F832A3D3E90023A062C4E9062374
S315080122A036F0CBFDD4E9062319431043C4E90601E8
S315080122B0CDE900014FF0FF334FF0FF32A06A3BF042
S315080122C01DF902224FF0FF31A06A3BF01CF90120EB
S315080122D014F050FC4FF4007300222849A06A3BF021
S315080122E063F9B0F5007F38D100239422CDE907338D
S315080122F009933C23CDE9033205939623A06A03A9E2
S31508012300069323F009F935B3287C15F0A9F8054693
S31508012310F0B9A06A3BF026FA15F050F814F00CFC57
S3150801232020B14FF48070002110F02CFD14F014FC3C
S3150801233020B14FF40060002110F024FD36F07CFE38
S31508012340012023F01FF80E4A0E49A06A36F068FDEF
S3150801235028460AB070BDFF20D7E70725F8E700BF72
S315080123600DD5015520000000A0380020690345EC71
S31508012370CC520020F9690208DC520020CC5000201A
S31508012380C98D0408098E04082DE9F74F0446DDE9CD
S315080123900C7B886816469A460D462CF07BFD8046CE
S315080123A0B06889462CF076FD02460B4640464946FA
S315080123B02CF0C8FD80468946BAF1000F1BD0DAF821
S315080123C008002CF067FD02460B46404649462CF0AC
S315080123D001FC8046B86821F000492CF05BFD0246F5
S315080123E00B46404649462CF0D7FE12A3D3E90023F3
S315080123F02DF024F850B13B46324629462046CDF801
S3150801240030B003B0BDE8F04F2AF046B8064B204677
S315080124100093656940F24513044A0549A847012016
S3150801242003B0BDE8F08F00BF83B70508D0B605082D
S31508012430EF6C05087B14AE47E17A943F0000000073
S315080124402DE9F84F4FF000432DED028B23FA00F0EA
S3150801245057EC106B59EC118B93468A462CF008FD04
S31508012460424604460D464B46304639462CF06AFD2F
S3150801247002460B46204629462CF064FD02460B46C9
S3150801248043EC182B0AA3D3E900232CF0EBFF08B180
S315080124909FED078B59465046B0EE480AF0EE680A9A
S315080124A0BDEC028BBDE8F84F2AF042BAAFF30080C3
S315080124B00000C0FFFFFFDF412DE9F0432DED028B40
S315080124C099460B7F89B0072B04460F461546129E7F
S315080124D01AD140F20241836B984740B9AC4B00933D
S315080124E0272365692046AB4AAB49A84799E0B062FC
S315080124F040F202412046A36B984720B9A74B0093A7
S3150801250065692B23EEE7F0622A7F3B7F072A08D10C
S31508012510092B3DD0072B13D0A14B009365693123B5
S31508012520E0E79A4234D0CDE902329E4B01939E4BA5
S315080125300093342365692046964A9C49A84770E06A
S31508012540D5F80C80B8F1000F09D00023CDE9028334
S31508012550974B0193974B009365693923EBE74146FE
S31508012560DFED950A47F6FF709FED940AB36A944A20
S315080125702BF008FCF36A4146DFED8F0A9FED910ABD
S31508012580914A92482BF0FEFBEB68F361AB68336224
S3150801259097F81C80B8F1090F45D0B8F1070F40F03C
S315080125A03781FB684BB10022CDE90232804B01939A
S315080125B0874B009365695B23BDE7EA6842B1CDE9BC
S315080125C002237B4B01937B4B009365695C23B2E73E
S315080125D0DFED807A95ED027AB4EEE77AF1EE10FA3C
S315080125E0DFED7D6ACCBF77EE677A77EEC77AF4EED0
S315080125F0E67AF1EE10FA7EDD4FF07C53002217EEF3
S31508012600100ACDE904232CF045FC744BCDE90201EF
S315080126100193734B00935D23656920465D4A7149B1
S31508012620A847012086E0287F072832D1EB6813F5F1
S31508012630004F09D0654ACDE902326B4B01935D4BD8
S3150801264000936569622376E7DFED687A95ED027A8C
S31508012650B4EEE77AF1EE10FADFED656ACCBF77EEF4
S31508012660677A77EEC77AF4EEE67AF1EE10FA66DD66
S315080126700022604B17EE100ACDE904232CF00AFC60
S315080126805D4BCDE902010193554B009365696323BF
S31508012690C3E7092812D0666929F0C2FE05464046F5
S315080126A029F0BEFE554BCDE9025001933D4B0093EF
S315080126B066232046374A5249B047B2E7EB6813F119
S315080126C0800F0AD06FF07F02CDE902324D4B01939C
S315080126D0384B0093656967232DE795ED027ADFED9F
S315080126E04A7AB4EE677AF1EE10FA28D0474B00938E
S315080126F065696823F6E6B8682CF0CCFB0446D9F878
S3150801270000000D462CF0C6FB02460B46204629461C
S315080127102CF018FC1CA3D3E900232CF03DFD06F18F
S31508012720080841EC100B404607A92AF0B9F8079B9F
S31508012730F360002009B0BDEC028BBDE8F083B868F0
S315080127402CF0A8FB41EC180BD9F800002CF0A2FBE1
S3150801275006F1080441EC100BB0EE481AF0EE681ABF
S315080127602146052007AAFFF76BFE07991F22F1608C
S3150801277005203BF003FC2CF07BFB01F100412CF01A
S315080127807BFEB061D5E700BF140014001400243F96
S3150801279080CA050803CA0508EF6C050897CA050823
S315080127A027B805086FC905087CC905085C6D0508C1
S315080127B081B70508BACA050880000038A000203983
S315080127C015E304088000803707E304080080FFFF4B
S315080127D0D4CA0508000000386F1203330DCB05086B
S315080127E019CB0508EDCA05082ECB05080000803768
S315080127F06F1283320000F03E35CB050841CB050840
S3150801280055C905084DCB05080000803B52CB050884
S31508012810B8F1010F0FD04046666929F001FE054659
S31508012820012029F0FDFD104BCDE9025001930F4B14
S31508012830009385233DE7287F01280ED0666929F094
S31508012840EFFD0546404629F0EBFD074BCDE9025061
S315080128500193074B009386232BE7D9F800002CF048
S3150801286019FBC6E9000164E730C605087CC90508F5
S315080128706FC90508000000002DE9F04FC76997B038
S315080128808346209E08910C92129355EC104B8DEDC0
S31508012890000B7FB910202DF0CDFE0246CBF81C00A7
S315080128A020B9A74BEF21A7482DF08CFEC0E9017787
S315080128B00760C760DBF81C30196859B15A680123EB
S315080128C0584693404A608B602EF014FEDBF81C30A4
S315080128D000221A602B1EB7BF23F0004300230122F2
S315080128E00193A8BF3360019F974BB8BF3260BB43C2
S315080128F019D142F20F73129A1360C7F313032343D4
S3150801290000F0DB85219B53B9904B21E0904B039353
S315080129100833219A1360039817B0BDE8F08F8B4BE3
S3150801292003930333F5E79DED007B0022002351EC69
S31508012930170B8DED0A7B2CF06DFD804650B10123F6
S31508012940129A1360219B13B1824B219A1360824B11
S315080129500393E0E7C7F30A5614AA15A958469DED4D
S315080129600A0B2FF04FF80290002E76D00B9BA6F299
S31508012970FF36CDF84C80C3F3130343F07F53DDE9EB
S315080129800A0143F4401319460022744B2CF022F92C
S3150801299065A3D3E900232CF0D5FA65A3D3E900236F
S315080129A02CF01AF904460D4630462CF061FA62A35A
S315080129B0D3E900232CF0C6FA02460B4620462946DF
S315080129C02CF00AF904460D462CF056FD002207465E
S315080129D00023204629462CF027FD40B138462CF025
S315080129E047FA22462B462CF015FD00B9013F162F52
S315080129F052D85B4B03EBC703DDE90A01D3E9002390
S31508012A002CF012FD002849D0013F00231193149B95
S31508012A109B1B5A1E4CBFC3F101030023079245BFF6
S31508012A200693002306930793002F39DB079B10971C
S31508012A303B44079300230993089B092B66D8052B6A
S31508012A40C5BF043B002401240893089B023B032BC2
S31508012A5067D8DFE803F02D3A3859DDE914631E44D7
S31508012A6006F23243202BC9BFC3F14003C3F1200349
S31508012A709F4006F21243D8BF04FA03F006F1FF3667
S31508012A80C4BF24FA03F347EA03002CF0E1F9012253
S31508012A90A1F1F873139276E70123B7E71190B6E728
S31508012AA0069BDB1B06937B42099300231093C3E71E
S31508012AB000230D930C9B002B56DC012399461A46DD
S31508012AC004930C920CE00123F3E700230D930C9B6E
S31508012AD0FB1803F1010904934B46012BB8BF0123E7
S31508012AE0DBF81C000021042202F114059D423FD99E
S31508012AF0416058462EF0BEFC039000283BD1194B85
S31508012B00024640F2AF11CEE60123DFE70124002396
S31508012B100D9408934FF0FF3300229946049312232C
S31508012B20CFE701230D93F5E761436F63A787D23F8B
S31508012B30B3C8608B288AC63FFB799F501344D33F9D
S31508012B40AED60508C5D605080000F07FF8C4050805
S31508012B50A5D6050882B7050881B705080000F83F1C
S31508012B60C0D705081ED705080C9B99460493B7E7F5
S31508012B7001315200B8E7DBF81C30B9F10E0F039AA0
S31508012B801A606FD8002C6DD0002F36DD07F00F02C2
S31508012B90A04BF8054FEA271403EBC20393ED007B1C
S31508012BA08DED0E7B17D59C4B04F00F044FF00308EF
S31508012BB0D3E90823DDE90A012CF0EEFACDE9000193
S31508012BC0954D5CB9DDE90E23DDE900012CF0E4FA47
S31508012BD0CDE900012BE04FF00208F1E7E10709D53D
S31508012BE008F10108DDE90E01D5E900232CF0AAF95F
S31508012BF0CDE90E0164100835E3E700F007817C4250
S31508012C00844B854D4FF0020804F00F02241103EBA3
S31508012C10C203DDE90A01D3E900232CF093F9002365
S31508012C20CDE90001002C40F0E580002BD0D1119BA5
S31508012C30DDE90045002B00F04C810022774B204648
S31508012C4029462CF0F1FB002800F04381B9F1000F69
S31508012C5000F03F81049B002B00F3E480DDE90A3490
S31508012C60CDE90034159B002B02DB0E2F40F342827F
S31508012C700D9A002A40F06782099C0025DDF8188024
S31508012C80B8F1000F0DD0079B002B0ADD4345069AC4
S31508012C90A8BF4346D21AA8EB03080692079AD31A85
S31508012CA00793099B0BB30D9B002B00F0A682002C02
S31508012CB000F0A1822946224658462EF045FD029A81
S31508012CC00146054658462EF095FC02990646584691
S31508012CD02EF010FC099B1B1B099300F09182099A9F
S31508012CE0314658462EF030FD0290012158462EF005
S31508012CF06BFC109B0446002B00F084821A460146A1
S31508012D0058462EF021FD089B0446012B03DC009B47
S31508012D10002B00F07C820026236904EB83031869E3
S31508012D203DF0B5FBC0F120001096079B184410F042
S31508012D301F0000F09182C0F12003042B40F3818229
S31508012D40C0F11C00069B034480440693079B034479
S31508012D500793069B002B05DD1A46029958462EF065
S31508012D604DFD0290079B002B05DD21461A46584664
S31508012D702EF044FD0446119B002B00F07682214675
S31508012D8002983DF0D3FB002880F26F8200230A22C5
S31508012D90029958462EF0D0FB0D9B7E1E0290002B01
S31508012DA000F05C82002329460A2258462EF0C4FB0D
S31508012DB0049B0546002B03DC089B022B00F35E826D
S31508012DC0B8F1000F05DD2946424658462EF016FD94
S31508012DD00546109B002B00F0D082696858462EF0F4
S31508012DE049FB0746002840F07F820D4B024640F218
S31508012DF0EF2158E5E20706D508F10108D5E90023D0
S31508012E002CF0A0F80123641008350BE74FF00208EF
S31508012E100DE700BFC0D7050898D705080000F03FA1
S31508012E201ED7050820460022AC4B29462CF08AF805
S31508012E307E1E08F10108049CCDE9000140462CF0EC
S31508012E4017F8DDE900232CF07DF8A54B00222BF0BD
S31508012E50C3FEA1F15073CDE90E010F93002C3BD1AE
S31508012E600022A04BDDE900012BF0B4FE02460B4619
S31508012E70CDE90023DDE90E232CF0F4FA002840F011
S31508012E805781DDE90E2101F10043DDE900012CF04E
S31508012E90CBFA00283FF4E2AE002425460C9BDDF868
S31508012EA00CA0DE434FF00008214658462EF022FBBF
S31508012EB0002D00F0A980B8F1000F05D0A84503D070
S31508012EC0414658462EF016FB294658462EF012FB67
S31508012ED09AE03E464C46B1E7834B03EBC40353E9FC
S31508012EE00201039B1C440D9B002B4AD002460B464C
S31508012EF000207E492CF050F9DDE90E232BF06AFEFD
S31508012F00DDF80CA0CDE90E01DDE900012CF0B4FADB
S31508012F1005462BF0ADFF024630350B46DDE90001CB
S31508012F202BF058FE0AF8015B02460B46CDE9000173
S31508012F30DDE90E012CF096FA002865D100206C49CE
S31508012F40DDE900232BF046FE02460B46DDE90E01BC
S31508012F502CF088FA002840F00D81A24500F0EA809D
S31508012F6000225E4BDDE90E012BF0ECFF00225B4BE4
S31508012F70CDE90E01DDE900012BF0E4FFCDE9000101
S31508012F80C2E7DDE90E232BF0DDFFA046DDF80CA034
S31508012F90CDE90E01DDE900012CF06EFA05462BF0AC
S31508012FA067FF024630350B46DDE900012BF012FEBC
S31508012FB00AF8015B02460B46A245CDE900234FF00C
S31508012FC0000223D1494BDDE90E012BF005FE02462D
S31508012FD00B46DDE900012CF045FA002840F0CA80CD
S31508012FE000204249DDE90E232BF0F4FD02460B468B
S31508012FF0DDE900012CF018FA70B1C24608F1FF3874
S315080130001AF8013C302BF8D0374655E0334B2BF0F4
S3150801301099FFCDE90001BDE7DDE90A34CDE90034C0
S31508013020159B002BFFF628AE0E2F3FF725AE2E4B2C
S3150801303003EBC70393ED007B0C9B002B8DED047B03
S3150801304002DAB9F1000F64D0DDF80CA0DDE900451C
S31508013050DDE90423204629462CF09EF82CF00CFACB
S3150801306006462BF005FFDDE904232BF06BFF02462C
S31508013070204606F130040B4629462BF0ABFD0AF82B
S31508013080014B039C02460B46AAEB0404A14540F0FA
S3150801309082802BF0A1FD04460D46DDE904232CF0C0
S315080130A0E1F9002865D120462946DDE904232CF0FB
S315080130B0B1F908B1F3075CD4029958462EF01AFA09
S315080130C0002301378AF80030129B1F60219B002BD1
S315080130D03FF421ACC3F800A01DE400BF0000244062
S315080130E000001C4000001440C0D705080000E03F5E
S315080130F00000F03FA24B03EBC70393ED007B0C9B4B
S31508013100002B8DED047B9FDAB9F1000F9CDC7FF46F
S31508013110C3AE00229B4BDDE904012BF013FFDDE969
S3150801312000232CF095F9044600287FF4B5AE3E46F7
S315080131302546B4E0DDE90A34CDE90034159B002BB8
S3150801314001DB0E2FD6DD089A012A36DC139A82B3E3
S3150801315003F23343099CDDF81880069A0121584683
S315080131601A440692079A1A4407922EF02DFA054632
S3150801317086E53E4653469A4613F8012D392A06D165
S31508013180039A9A42F7D13022039901360A701A78BE
S3150801319001321A7038E700227B4B2BF0D3FE00224E
S315080131A0002304460D462CF035F900283FF450AFAC
S315080131B082E7149BC3F13603CCE709F1FF34099B77
S315080131C0A34208DBB9F1000FA3EB04040EDBDDF81B
S315080131D018804B46C1E7099B109AE31A0994DDF852
S315080131E0188000241A444B461092B6E7069BA3EBB7
S315080131F009080023B1E7029E71E5099A029970E56B
S31508013200029672E5089B012B17DC009BABB9019B63
S31508013210C3F313039BB9019B23F00046360D36050C
S3150801322036B1069B012601330693079B01330793A3
S31508013230109B002B7FF470AD1096012075E50026D2
S31508013240F6E73FF486AD1C33069A1A44984406926B
S31508013250079A1A4407927CE50346F4E7049B002B78
S315080132602BDC089B022B09DC27E0B9F1000F1DDCDA
S31508013270089B022B1ADD3E46CDF81090049B002BC5
S315080132807FF40CAE2146052258462EF055F9014623
S31508013290044602983DF04AF900287FF7FFADDDF8AC
S315080132A00CA0312301360AF8013BFBE50D9B3E468E
S315080132B0CDF81090002B7FF483AD039F2146029829
S315080132C03DF058F8039B00F13009049A07F8019B71
S315080132D0FB1A9A4240F3CB8000230A2202995846E8
S315080132E02EF02AF90290E9E72A6905F10C010C305A
S315080132F0023292003DF029F80122394658462EF04D
S315080133007DFA039BA846054603F1010ADDE9032375
S3150801331013440793009B03F0010309930AF1FF3352
S315080133202146029804933DF025F84146069000F19E
S31508013330300902983DF0FAF82A46214607465846CA
S315080133402EF0C8FAC268014602B358462EF0D2F8E2
S31508013350002F3ADA0122029958462EF04FFA2146F1
S3150801336002903DF0E3F8002803DC29D119F0010F9A
S3150801337026D0B9F1390F1DD132E02846C1E700BF81
S31508013380C0D7050800001440000024400A9002989E
S315080133903DF0CCF80A990C9058462EF0ABF80C9AE9
S315080133A05ABB089B53B9099B43B9B9F1390F17D0D1
S315080133B0002F05DD069B03F1310901E0002F2ADA0A
S315080133C0DDF810A00AF8019B6EE5089B3B4304D182
S315080133D0009B03F00103002BBCD0B9F1390F36D19C
S315080133E0049F392307F8013BBA46013F1AF8013C05
S315080133F0392B5AD001333B7056E5002F06DB089B63
S315080134003B4306D1009B03F0010313B9002AA1DC53
S31508013410D6E7002AE1DC079B57460AF8019C534583
S315080134202ED000230A22029958462EF085F8A8457F
S3150801343002904FF000034FF00A02414658460BD15D
S315080134402EF07AF8804605460AF1010A66E7DDF8A4
S3150801345010A009F10109B5E72EF06EF82946804654
S3150801346000230A2258462EF067F80546ECE7049B26
S315080134704FF00008002BCCBF1F460127039B1F44B2
S315080134800122029958462EF0B9F9214602903DF0DB
S315080134904DF80028A8DC02D119F0010FA4D1BA46CB
S315080134A017F8013D302BFAD0FEE4039BBB429BD1B2
S315080134B03123039A01361370F6E4219B002B7FF41E
S315080134C025AA014BFFF744BAA5D605080000000056
S315080134D051EC100BC1F30A532DE9F041A3F2FF3564
S315080134E00C460646132D32DC002D20DB384B0F46E1
S315080134F043FA05F801EA080303432DD032A3D3E9B9
S3150801350000232BF069FB002200232BF0ABFF40B10F
S31508013510002C03DA4FF480132B411F4427EA0804D1
S3150801352000262346324643EC102BBDE8F08126A33C
S31508013530D3E900232BF050FB002200232BF092FF46
S315080135400028EED0002C2ADB00263446E9E7332D85
S3150801355006DDB5F5806F1BD041EC100BBDE8F08197
S31508013560A3F213434FF0FF37DF400742F4D016A307
S31508013570D3E900232BF030FB002200232BF072FF46
S315080135800028CED0002C334610DB23EA0706C8E70D
S3150801359002460B462BF020FB41EC100BDEE724F02C
S315080135A0004426430DD14FF00044BAE7142D06D046
S315080135B0C5F134050122AA401344B342E5D20134C8
S315080135C0E3E70026034CACE79C7500883CE4377EAC
S315080135D0FFFF0F000000F0BF0348044B834202D0EF
S315080135E0034B03B1184770472818002028180020F4
S315080135F000000000064B0749C91A891048BF013166
S31508013600491003D0044B0BB101481847704700BF56
S3150801361028180020281800200000000010B5064CC4
S31508013620237843B9FFF7D8FF044B13B10448AFF326
S3150801363000800123237010BDBC5A00200000000041
S31508013640F4D8050808B5054B1BB105490548AFF37C
S315080136500080BDE80840FFF7CDBF00BF00000000AD
S31508013660103B0020F4D80508A3F5803A704700BF3F
S31508013670174B002B08BF134B9D46FFF7F5FF00219B
S315080136808B460F461348144A121A3CF0FFFD0E4B9F
S31508013690002B00D098470D4B002B00D098470020EF
S315080136A0002104000D000D48002802D00C48AFF394
S315080136B000802DF03BFE200029002FF016F82CF093
S315080136C0A7FF00BF0000080000000000000000007E
S315080136D00010002028180020085C002000000000C7
S315080136E0000000000368864A23F47F4323F007039A
S315080136F0934273B505D0834A934200F0AB8002B07A
S3150801370070BD814E304616F09DFE054610B37F4CBE
S315080137107F49206831F01BF87E49206831F017F897
S315080137202FF078F82FF077F87B4B7C4A00937C4989
S315080137302B23206831F00BF87A492B467A4A206800
S3150801374031F005F8284600F02BFF7849206830F05B
S31508013750FEFFFEE70221307816F0AEFE044610B3EE
S315080137606A4D6B49286830F0F2FF6A49286830F0DB
S31508013770EEFF2FF04FF82FF04EF8674B674A00938C
S3150801378067493023286830F0E2FF66492346664ACE
S31508013790286830F0DCFF204600F002FF63492868FC
S315080137A030F0D5FFFEE7A022009003461146307897
S315080137B016F060FE054610B3544C5549206830F0A2
S315080137C0C6FF5449206830F0C2FF2FF023F82FF0C6
S315080137D022F8514B514A009351493923206830F058
S315080137E0B6FF50492B46504A206830F0B0FF2846AC
S315080137F000F0D6FE4D49206830F0A9FFFEE7022108
S31508013800307816F06DFE054600283FF478AF3F4C38
S315080138103F49206830F09BFF3E49206830F097FF0A
S315080138202EF0F8FF2EF0F7FF3B4B3C4A00933C493C
S315080138303D23206830F08BFF3A492B463A4A2068E7
S3150801384030F085FF284600F0ABFE3849206830F095
S315080138507EFFFEE72C4C0221207816F02DFE054648
S3150801386010B32A4C2A49206830F071FF294920688B
S3150801387030F06DFF2EF0CEFF2EF0CDFF264B274AF6
S31508013880009327494B23206830F061FF25492B46D1
S31508013890254A206830F05BFF284600F081FE23495F
S315080138A0206830F054FFFEE70221207816F018FE52
S315080138B0054600283FF423AF144C1549206830F01B
S315080138C046FF1449206830F042FF2EF0A3FF2EF080
S315080138D0A2FF114B114A009311495023206830F079
S315080138E036FF10492B46104A206830F030FF28462B
S315080138F000F056FE0D49206830F029FFFEE700BFAB
S31508013900A0000100A000060108160020403C002086
S315080139106A09050880080508C30805088508050811
S315080139208E0805089D0805089A080508B2080508BD
S315080139301FB5002301A80193029303932EF0A5FE58
S31508013940012850D0294B1B78002B4CD0DFED287A63
S315080139509DED017AC7EE273A9DED027A87EE274A51
S315080139609DED037A234AC7EE274AD2ED006AF7EEA0
S31508013970007AB6EE007A92ED015AD2ED025A73EE4A
S31508013980E66AB0EE676A34EE455AA6EE876A74EEC1
S31508013990E55AF0EE676AE5EE877AE5EE076A0C24E2
S315080139A026EE076A66EE876A67EE877A1248134932
S315080139B00368C2ED003A04FB03110133312B81ED93
S315080139C0006AC1ED016AC1ED027A82ED014AC2EDD2
S315080139D0024A036005DD002303600122084B1A70C1
S315080139E001E09B07F9D004B010BD00BFBD5A002005
S315080139F00000FA4404100020283B00201010002083
S31508013A00BE5A0020F0B585B004462FF0E3FC012824
S31508013A1018D1134B9C4213D100244FF00C0C114EB4
S31508013A20114F01AB0CFB047596E807000134322CE3
S31508013A3083E8070085E80700F4D101220B4B1A70C9
S31508013A4005B0F0BD20462FF0C5FC0028F8D1044B7F
S31508013A509C4201BF054B1870054B1860F0E700BF83
S31508013A60780D0508D409050810100020BD5A002054
S31508013A70283B002010B52A482DF0C8FA0CF080FD25
S31508013A80284C20600CF076FD274B22681860536994
S31508013A90196804290BD15968012908D1996832296D
S31508013AA005D1DB68032B02D1147F012C16D0012026
S31508013AB000F030FD60B11D4C1D49206830F047FE0D
S31508013AC02EF0A8FE2EF0A7FE1A49206830F03FFE18
S31508013AD06721BDE8104018482FF022BA17482EF082
S31508013AE0AFFD90B1204600F015FD60B10F4C1049AD
S31508013AF0206830F02CFE2EF08DFE2EF08CFE10493B
S31508013B00206830F024FE7121E3E700202EF0BDFD88
S31508013B100028FAD1BDE810400A482DF077BA00BF4F
S31508013B20D2080508303B00202C3B0020403C0020F1
S31508013B30F1080508F60805081D09050831390108BF
S31508013B402E0905084B09050830B585B001468DF8DB
S31508013B500F0018482DF048FA012115200DF10F0222
S31508013B6016F052FD054610B3134C1449206830F07F
S31508013B70EEFD1349206830F0EAFD2EF04BFE2EF0DB
S31508013B804AFE104B104A009310498723206830F0EB
S31508013B90DEFD0F492B460F4A206830F0D8FD28462E
S31508013BA000F0FEFC0C49206830F0D1FDFEE705B0B7
S31508013BB030BD00BF57090508403C00206A090508C1
S31508013BC0800805086C0905081D0905088E080508F9
S31508013BD09D0805089A080508B208050838B52E4B48
S31508013BE01A78002A56D000221A702C4B2C4D1B68C5
S31508013BF04FF416722B4918693CF0A7FB286829F07F
S31508013C0011F9044698B1012000F084FC002841D03E
S31508013C10254C2649206830F09AFD2EF0FBFD2EF042
S31508013C20FAFD20682249BDE8384030F090BD0146CA
S31508013C30286828F0EDFE0369DFED1E7A93ED007A18
S31508013C40B4EEE77AF1EE10FA20DC93ED017AB4EEE0
S31508013C50E77AF1EE10FA14DC93ED027AB4EEE77A1C
S31508013C60F1EE10FA16DD14482DF0BEF902240023F0
S31508013C70124A20461370124A1360BDE83840FFF70E
S31508013C8063BF10482DF0B0F90124F0E70E482DF076
S31508013C90ABF9ECE738BD00BFBE5A0020303B002027
S31508013CA02C3B002010100020403C0020F10805089C
S31508013CB0810905086666663F94090508BD5A00200C
S31508013CC0283B0020A7090508BE09050830B5036881
S31508013CD03B4A23F47F4323F00703934289B06CD10F
S31508013CE00DF10F0104A816F0A5FC044610B3354DD5
S31508013CF03549286830F02BFD3449286830F027FD0E
S31508013D002EF088FD2EF087FD314B324A0093324959
S31508013D106423286830F01BFD30492346304A286859
S31508013D2030F015FD204600F03BFC2E49286830F09E
S31508013D300EFDFEE7BDF8143001465BBAADF8183042
S31508013D409DF8133008228DF81A30FF238DF81B30A1
S31508013D50FE238DF81C309DF8123012208DF81D3087
S31508013D60BDF810305BBAADF81E3006AB16F0DEFBB7
S31508013D70054610B3134C1449206830F0E8FC134982
S31508013D80206830F0E4FC2EF045FD2EF044FD104B82
S31508013D90104A009310497423206830F0D8FC0F4963
S31508013DA02B460F4A206830F0D2FC284600F0F8FB73
S31508013DB00C49206830F0CBFCFEE709B030BD00BFE6
S31508013DC0A0000100403C00206A0905088008050892
S31508013DD0080A0508E00905088E0805089D0805086A
S31508013DE09A080508B208050808B50AF0E7FB18B1EC
S31508013DF02B2106482FF094F816F0CAF928B1BDE828
S31508013E000840312101482FF08BB808BDF40C05088C
S31508013E1010B5274C05F0DAF905F0CCFC236F23F031
S31508013E20070343F0030323672FF0E4FB214B00202C
S31508013E309B6ADB015EBF4FF480321F4B9A62D4F84E
S31508013E40203123F0070343F00203C4F82031D4F8E4
S31508013E50283123F0070343F00203C4F82831D4F8C4
S31508013E60403123F0030343F00203C4F84031D4F888
S31508013E70603123F0030343F00203C4F86031D4F838
S31508013E80403223F0030343F00203C4F84032D4F866
S31508013E90003223F0070343F00203C4F80032D4F8D2
S31508013EA0083223F0070343F00203C4F8083210BDB1
S31508013EB0008000500040005A0060005A30B5234D7A
S31508013EC09DB008AC0FCD0FC495E80F0084E80F002C
S31508013ED02C22002111A83CF0D9F91D4B012410937D
S31508013EE0562312930523159306230E2200210DF15D
S31508013EF012008DF8454017933CF0C8F94FF470202D
S31508013F00144B08AACDE902030B238DF810300C23B4
S31508013F108DF81130104B1148059320230693104B49
S31508013F2002A9009310AB8DF81D4008F0B5FF0446B1
S31508013F3018B17C210B482EF0F3FF00214FF4E13034
S31508013F402EF0C3FC20461DB030BD00BF400D05084C
S31508013F500000015B3C00015BBF5A0020A43B002026
S31508013F60343B00200E0D0508022905D8034B1B68B2
S31508013F70186808B1436A1847704700BF68120020DD
S31508013F8008B50449044809F061FDBDE80840FFF792
S31508013F9095BF00BF6C120020C83B0020014830F0D5
S31508013FA00DBC00BFA43B002008B504482FF00DFA4C
S31508013FB0BDE8084002482FF008BA00BF780D050889
S31508013FC0600D050808B504482FF081FABDE80840D8
S31508013FD002482FF07CBA00BFA80D0508900D050808
S31508013FE030B585B02EF009FC8DF80F00174801226F
S31508013FF0192100780DF10F0316F0F0FA054610B3F2
S31508014000134C1449206830F0A2FB1349206830F09C
S315080140109EFB2EF0FFFB2EF0FEFB104B104A009381
S3150801402010494723206830F092FB0F492B460F4A67
S31508014030206830F08CFB284600F0B2FA0C4920685B
S3150801404030F085FBFEE705B030BD00BFDF5A002022
S31508014050403C00206A090508800805088B4C0508BC
S31508014060184C05088E0805089D0805089A080508CC
S31508014070B208050830B503688A4A23F47F4323F05A
S3150801408007039342044685B030D002F10072934289
S3150801409000F09E80A2F1017293422DD1824800F070
S315080140A0BDFA054640B3814C8149206830F04FFB83
S315080140B08049206830F04BFB2EF0ACFB2EF0ABFBB1
S315080140C07D4B7E4A00937E495723206830F03FFB9B
S315080140D07C492B467C4A206830F039FB284600F09B
S315080140E05FFA7A49206830F032FBFEE7B0F805300E
S315080140F0192B03D01D2B36D005B030BD2EF07DFB14
S3150801410000220DF10F03009301928DF80F00012390
S31508014110B4F80510207916F01FFA05460028EBD0E9
S31508014120624C6349206830F012FB6249206830F01E
S315080141300EFB2EF06FFB2EF06EFB654B5F4A00936C
S315080141405F496523206830F002FB5E492B465E4ACB
S31508014150206830F0FCFA284600F022FA5B4920680C
S3150801416030F0F5FAFEE72EF04CFB00220DF10F03B5
S31508014170009301928DF80F000123B4F805102079F8
S3150801418016F0EAF905460028B6D0484C4849206891
S3150801419030F0DDFA4749206830F0D9FA2EF03AFBBB
S315080141A02EF039FB4B4B454A00934549732320684A
S315080141B030F0CDFA43492B46434A206830F0C7FA16
S315080141C0284600F0EDF94149206830F0C0FAFEE7CB
S315080141D0B0F80530192B8FD1C379012B8CD13E4A02
S315080141E0017911700289002A31D0009342F21071C7
S315080141F000233A4A2C4800F02DFA054610B32B4CF9
S315080142002B49206830F0A3FA2A49206830F09FFA32
S315080142102EF000FB2EF0FFFA314B284A009328496D
S315080142208223206830F093FA26492B46264A2068CD
S3150801423030F08DFA284600F0B3F92449206830F0A9
S3150801424086FAFEE705B0BDE83040FFF7C9BE164855
S3150801425000F0E4F9054600283FF44EAF134C144923
S31508014260206830F074FA1349206830F070FA2EF09D
S31508014270D1FA2EF0D0FA1A4B104A009310498A2324
S31508014280206830F064FA0F492B460F4A206830F04F
S315080142905EFA284600F084F90C49206830F057FA8E
S315080142A0FEE700BFA0000A01D03B0020403C0020E9
S315080142B06A09050880080508EA4C0508184C050826
S315080142C08E0805089D0805089A080508B208050814
S315080142D0D14C0508BF4C0508DF5A0020FF27040802
S315080142E0A34C0508184B37B583422AD1174B1B78BF
S315080142F03BB3C8B216F008F9054610B3144C154974
S31508014300206830F024FA1449206830F020FA2EF09B
S3150801431081FA2EF080FA114B114A0093114985232F
S31508014320206830F014FA10492B46104A206830F0FC
S315080143300EFA284600F034F90D49206830F007FADC
S31508014340FEE703B030BD00BF083C0020E05A00205C
S31508014350403C00206A09050880080508724D0508D1
S31508014360044D05088E0805089D0805089A080508DC
S31508014370B208050830B500250368584A23F47F4377
S3150801438023F0070385B0934204460295ADF80C5015
S315080143907ED002F5802293420ED0A2F18272934218
S315080143A040F09A804E4B1B78002B00F0958005B0A3
S315080143B0BDE8304030F0B1BBB0F80530202B40F0F5
S315080143C08B80FF2304A91A4611E903002EF01BFA74
S315080143D0012814BF41F2FC15414B05F0FC0208BF48
S315080143E018702021207916F0E1F8054610B33D4CE6
S315080143F03D49206830F0ABF93C49206830F0A7F90F
S315080144002EF008FA2EF007FA394B3A4A00933A4940
S315080144105923206830F09BF938492B46384A2068D9
S3150801442030F095F9284600F0BBF83649206830F097
S315080144308EF9FEE7344900902379344A09683448ED
S3150801444000F008F90546002846D0264C264920687A
S3150801445030F07DF92549206830F079F92EF0DAF93E
S315080144602EF0D9F9224B234A009323496223206867
S3150801447030F06DF921492B46214A206830F067F959
S31508014480284600F08DF81F49206830F060F9FEE7EC
S31508014490B0F80530B7EE047A07EE903AF8EE677A87
S315080144A0B0F8073067EE877A013307EE103AB8EEAF
S315080144B0C77A67EE877AB1EE047A67EE877AFAFEEB
S315080144C0677AFCEEE77A17EE903AB3F57A7F38BF4A
S315080144D04FF47A730C4A136005B030BDA00006028A
S315080144E0E05A0020403C00206A09050880080508B2
S315080144F0814D0508044D05088E0805089D0805081F
S315080145009A080508B208050874120020E542010850
S31508014510083C00200B4B02461B7883B10A4B1B78DB
S31508014520834234BF00200120084B1B7833B1084B66
S315080145301B78134113F0010F08BF002070470120B3
S31508014540F2E700BF1116002010160020E15A0020DC
S315080145500F160020012208B5074B1A700022074BD7
S315080145601A700422064B1A701F22064B1A7008F09D
S315080145702BFC054B186008BD11160020E15A0020D6
S31508014580101600200F160020403C0020024B03495C
S31508014590186830F0DCB800BF403C0020A14D050882
S315080145A070B50C4C0C490646206830F0D0F808F076
S315080145B00BFC0546206808F0FBFB3046FFF7E6FFD3
S315080145C0284608F0F5FB20680449BDE8704030F03C
S315080145D0BEB800BF403C0020A34D0508A54D0508FF
S315080145E038B505462FF022F800230B4A14685CB14A
S315080145F0AC4206D1A96A6BB199622FF01DF8012068
S3150801460007E02346A46AF2E7002DF3D02FF014F849
S31508014610204638BD1160F0E7443C002010B5044639
S3150801462098B109F0CFFC2046FFF7DAFF10B194F8EC
S315080146302C300BB9002010BD2EF0F8FF044A136880
S31508014640013B13602EF0F8FFF4E72220F3E700BFE1
S31508014650483C00202DE9F04385B005469146984629
S315080146600E469DF8307009B9002F5CD12846FFF730
S31508014670D5FF0446002836D185F82C00686309F071
S315080146807FFD864233D909F0EDFC2146844640F286
S31508014690E7304FF47A720023E6FB0C012AF064FF37
S315080146A04FF0FF3200232AF05FFF2B46E8861146BA
S315080146B02846CDE900441D4A30F09EF9044690B9D2
S315080146C0C5E9089885F82D702E632EF0AFFF184AB4
S315080146D0136833B31A469B6A002BFBD195620023F4
S315080146E0AB622EF0A9FF204605B0BDE8F08347B1BD
S315080146F02B4631462846CDE900440C4A09F004FD0B
S31508014700DCE7304603A909F0E1FC04460028EAD1B2
S315080147102B462846CDE90077044A039930F048F933
S31508014720CCE71560DBE72124DDE700BF3547010843
S31508014730443C002091F82C3013B50C4683B98B8E76
S31508014740CA8E93420ED243B9CDE9003320460B46B1
S31508014750104A4FF0FF3130F00FF9A38E0133A386CB
S3150801476002B010BD52B191F82D307BB101230093EF
S31508014770D1E908232046096BFFF76CFF0123064A96
S3150801478084F82C30136801331360E9E7084609F009
S3150801479019FCF3E735470108483C00202DE9F041AB
S315080147A0144E336823B34FF00008134F2EF03EFF23
S315080147B005463C6824B92846BDE8F0412EF03CBFC1
S315080147C094F82C3093B1336884F82C80013B33601C
S315080147D094F82D3013B92046FFF702FF28462EF02C
S315080147E02BFFD4E9083120469847DFE7A46AE1E7B9
S315080147F0BDE8F081483C0020443C0020082808B563
S3150801480004D00FDC022809DC002809DD0123042273
S315080148100921022005F04EFE002008BD0428F5D026
S31508014820D82106E02028F1D0402807D01028F7D152
S31508014830B92104482EF074FB0E20EEE70123042269
S315080148400821E6E7A84D05088022014B1A6470473E
S3150801485000E0035070B514460D4640F080010A4841
S31508014860FFF7F2FF2EF010FF074E2544AC4204D1A4
S315080148708022064B00201A6470BD002130462EF0B6
S3150801488003FF04F8010BF1E700000A5000D00350BA
S3150801489038B50C46084D00F07F012846FFF7D4FFCE
S315080148A02EF0F2FE214628462EF0EEFE8022034B1C
S315080148B000201A6438BD00BF00000A5000D003501A
S315080148C070B5264C8EB0264601AD0FCE14340FC5F1
S315080148D00FCC06AD0FC594E80F0085E80F00204BF5
S315080148E00121039306AB05934FF480735720ADF866
S315080148F01C3004F01BFA01213A2004F017FA0023B0
S3150801490004220321022005F0D5FD022100230846D1
S31508014910012205F0CFFD002304220121022005F022
S31508014920C9FD012304220721002005F0C3FD0D4816
S3150801493001A905F0F7FB0C4B0C4A0020C3F8CC245F
S315080149404FF00212C3F8C424A2F58032C3F8C82472
S315080149501C22C3F8B4240EB070BD00BF5C4E050816
S31508014960A05A320000000A5000C00350020003009A
S3150801497010B52DED028B9FED188AB7EE007AC8EEB9
S31508014980007A77EEC77A9FED157AF4EEC77AF1EEDB
S3150801499010FA82B019DCF5EEC07AF1EE10FA17D4E6
S315080149A0FCEEE77ACDED017A9DF8044019202146FF
S315080149B0FFF76EFF631C00EE103AB8EEC00A88EEE8
S315080149C0000A02B0BDEC028B10BDF0EE477AE7E7AC
S315080149D0DFED037AE4E700BF00007A4400007F4375
S315080149E00000000013B5044601211C200DF1070241
S315080149F0FFF730FF9DF8073003F01803102B8DF8E9
S31508014A00073012D009D89BB1082B14D00B484FF4A4
S31508014A10AA712EF085FA012005E0182BF6D14FF080
S31508014A2068530020236002B010BD4FF06653F8E7C3
S31508014A304FF06253F5E74FF06453F2E7024E05086B
S31508014A4013B5044601211B200DF10702FFF702FFEA
S31508014A509DF8073003F01803102B8DF8073011D095
S31508014A6009D88BB1082B11D0094840F279112EF0DB
S31508014A7057FA012004E0182BF6D1064B00202360D3
S31508014A8002B010BD044BF9E7044BF7E7044BF5E711
S31508014A90024E050800007A3D0000FA3C0000FA3B88
S31508014AA000007A3C01212DE9F043002285B08046B9
S31508014AB008462DF0FCFF9FED6D0AFFF759FF05200B
S31508014AC02DF05AFF00202DF0DFFF6846FFF7B8FFEB
S31508014AD0322009F0DFFA40211A20FFF7D9FE4421D6
S31508014AE06A20FFF7D5FE78212320FFF7D1FE05209E
S31508014AF009F0D0FA0221722001AAFFF7ABFEBDF830
S31508014B0004305BBA9BB2B3F5FC7FF0D3782200215F
S31508014B1023202DF0F5FE0221722001AAFFF79AFE45
S31508014B204FF000090C23BDF804704C467FBABFB29A
S31508014B30B7FBF3F74D464E461FFA89F3BB4278D3C6
S31508014B4096FBF7F607EE906A9DED007AF8EEE77A9E
S31508014B5095FBF7F567EE877AC8ED007A07EE905A66
S31508014B60F8EEE77A94FBF7F467EE877AC8ED017AEF
S31508014B7007EE904AF8EEE77A67EE877A01AAC8ED5A
S31508014B80027A02211320FFF765FE9DF904309DF88C
S31508014B90058001AA0221152048EA0328FFF75AFED3
S31508014BA09DF904309DF8057001AA0221172047EAEC
S31508014BB00327FFF74FFE002E9DF904209DF80530C7
S31508014BC0B8BF0336002DA8EBA606B8BF0335002CDF
S31508014BD043EA0223B8BF0334C6F307211320A3EB24
S31508014BE0A404A7EBA505FFF753FEF1B21420FFF7BE
S31508014BF04FFEC5F307211520FFF74AFEE9B2162035
S31508014C00FFF746FEC4F307211720FFF741FEE1B27D
S31508014C101820FFF73DFE402200216A202DF070FE84
S31508014C200022114610462DF042FF002005B0BDE8CE
S31508014C30F08301AA0C217420FFF70CFE9DF90A20C6
S31508014C409DF80B3009F1010943EA02231E449DF937
S31508014C500C209DF80D3043EA02231D449DF90E20D0
S31508014C609DF80F3043EA02231C4465E700007A44A5
S31508014C70B7EE007AC7EE007A9FED057AC0ED157A90
S31508014C80C7EE007A80ED140AC0ED167A704700BFA8
S31508014C9035FA8E3CF0B52DED048B0F4600F15C0517
S31508014CA00446D0ED098A90ED0A9AD0ED0B9A85B0A3
S31508014CB028461646B0EE408A2EF0AEF8002F48D0A8
S31508014CC094ED097ADFED386AB4EEE67AF1EE10FA78
S31508014CD03FDBDFED367AB4EEE77AF1EE10FA38D833
S31508014CE094ED0A7AB4EEE67AF1EE10FA31DBB4EE17
S31508014CF0E77AF1EE10FA2CD8F5EEC09AF1EE10FA31
S31508014D00F1EE688AB1EE490A04F1680725DB2DF050
S31508014D1021F88DED010AB0EE680A2DF01BF8B1EE07
S31508014D20400A28463A4601A98DED020A8DED038A05
S31508014D302EF0AAF828462EF062F80EB9002363660B
S31508014D40D4ED147AB6EE000A284680EE270A2EF02C
S31508014D507BF805B0BDEC048BF0BD2CF0FBFF9FED95
S31508014D60149A39EE400A8DED010AB0EE680A2CF064
S31508014D70F1FF38EE098AB1EE400A01A88DED020A63
S31508014D808DED038A2EF03BF83A46284601A92EF006
S31508014D907BF828462EF033F8D4ED187AF1EE677AC7
S31508014DA0C4ED187AC9E700BFDA1B7CBFDA1B7C3F62
S31508014DB0DB0F494070B5044600F052F80128054654
S31508014DC026D104F12406304600F0D6F831462046AD
S31508014DD004F144062DF09CFF304600F0DBF8D4EDD3
S31508014DE0117AF1EE677AC4ED117AD4ED127AF1EE01
S31508014DF0677A31462046C4ED127A2DF0A5FF294679
S31508014E002046BDE870409FED030A0022FFF742BF26
S31508014E1070BD00BF000000007FB502250E4E0F4889
S31508014E2035702DF053FF2DF083FD044660B90DF161
S31508014E3003002DF07DFE044630B9032301A8337023
S31508014E40FFF730FE044610B12DF04EFD0025204631
S31508014E50357004B070BD00BFE25A00204C3C0020FA
S31508014E60014B1878704700BFE25A002070B501213E
S31508014E702DED028B0223B0EE408A1C4E82B0002231
S31508014E80084633702DF013FEB0EE480AFFF770FDA1
S31508014E90174D082085ED000A2DF07EFD03202DF023
S31508014EA06BFD00202DF0DDFD00202DF0EDFD3220FB
S31508014EB009F0F0F80F4C002101202DF011FE01A890
S31508014EC02DF01CFE95ED000A20462DF01EFF95EDEE
S31508014ED0000A2046FFF7CCFE20462DF051FF01239C
S31508014EE0337002B0BDEC028B70BD00BFE25A0020E0
S31508014EF0C83C00204C3C00201A4AD36B6BB392ED98
S31508014F000C6A9FED197A07EE903A26EE076AF8EED3
S31508014F10677AC6EE276A92ED0D6AFDEEE66A26EE17
S31508014F20076A16EE903AC6EE276AFDEEE66A038030
S31508014F3016EE903AD2ED0E6A66EE876A86EEA77A83
S31508014F40BDEEC77A438017EE103A838000231363B8
S31508014F50536393630023D36370470380438083803D
S31508014F60704700BF4C3C002000007A440148FFF717
S31508014F7021BF00BF4C3C0020054A1278012A04D003
S31508014F80002202604260826070472DF00ABD00BFB0
S31508014F90E25A0020054A1278012A04D0002202604A
S31508014FA04260826070472DF02CBD00BFE25A002096
S31508014FB008B5094B1B78012B01D0002008BD2DF03F
S31508014FC0A9FD064A1368013313600028F5D0044A7F
S31508014FD0136801331360F1E7E25A0020C43C00204C
S31508014FE0C03C00209FED060A00F10C03B0EC017AE3
S31508014FF0F1EC017A984207EE270AF7D1704700BF0C
S31508015000000000000122024BC3F8A020704700BF30
S3150801501000D003500122024BC3F8A020704700BFFD
S3150801502000E0035070B5404D88B001AC0FCD0FC4F8
S3150801503095E8070084E80700012401213A2003F0D6
S3150801504075FE3A4E0121292003F070FE384B304691
S3150801505001A903938DF8124005F0C0FD23460422E9
S315080150600321022005F026FA0221224608460023DA
S3150801507005F020FA234621460422022005F01AFAF1
S31508015080042200212346022005F014FA294D2A4B51
S315080150904FF44870C5F834374FF00213C5F8303766
S315080150A003F58033C5F838371C23C5F8203709F0CE
S315080150B059FA1420FFF7AEFF09F054FA2320FFF737
S315080150C0A1FF09F04FFAB9213046FFF7A3FF2EF0E9
S315080150D009FBFFF797FF002303211A46022005F073
S315080150E0E9F9002302211A46084605F0E3F92346A1
S315080150F021460022022005F0DDF900222346114649
S31508015100022005F0D7F9304605F03CFD002129209B
S31508015110C5F83417C5F83017C5F83817C5F8201774
S3150801512003F004FE08B070BD904E050800C0055096
S3150801513000127A0000C00350020001000348044A25
S315080151400449121A92102DF0D8BE00BF30E10508A5
S3150801515030E10508085C002008B500F02FF8FFF7D4
S31508015160EDFF124B12498B4212D30020114B124903
S315080151708B4218D3FEF77CFA186850F82240586813
S3150801518040F82240013298688242F5D30C33EAE7A7
S315080151900022F8E71C6844F8220001325C68A24242
S315080151A0F8D30833E4E70022F8E700BFFCD805087E
S315080151B008D9050808D9050808D905084FF4804112
S315080151C04FF0FF30114B124A10B59A60D3F8882078
S315080151D042F47002C3F888200E4A91660E4901F519
S315080151E0005210660D4850660220C3F8D000BFF37E
S315080151F04F8FBFF36F8F01244FF440330848C0F82F
S315080152008041D36004600B6110BD00BF00ED00E072
S31508015210002001080090005000800044F7FF370085
S3150801522000E100E0014B1868704700BF7C120020BE
S31508015230084B1B6F03F00703022B04D0032B05D081
S31508015240012B05D0FEE7044B18687047034BFBE7B3
S3150801525003487047008000507C1200208412002009
S31508015260002D310108B5FFF7E3FF054B1B6FC3F3AB
S3150801527003330133B0FBF3F0024B186008BD00BFDE
S3150801528000800050781200200048704700B4C4041A
S31508015290014B1868704700BF84120020054B18603F
S315080152A0054B1B6F03F00703032B01D1FFF7DABF89
S315080152B0704700BF841200200080005000487047E4
S315080152C0002D31014FF0B4439868C0F304400C280F
S315080152D00AD8DFE800F00B090909090907211909A4
S315080152E01B1D1F000F487047002070479B6803F07D
S315080152F04073B3F1807F11D0B3F1007F10D00A4A11
S31508015300002B08BF10467047084870470848704781
S315080153100848704708487047084870470848704762
S3150801532008487047405DC60000093D00C0EA2101F2
S3150801533080BA8C010048E801005A62020024F40090
S3150801534080841E0040420F00014B1868704700BF59
S31508015350801200204FF000639B6A10B503F1784272
S31508015360B2F5903F11D21968094A91420DD1094CFB
S31508015370227812F0FD0F01D0002010BDDB69984795
S315080153800028FAD101232370F6E74FF48170F4E778
S3150801539007B0CD5EE35A00204FF00053074A1A6062
S315080153A0BFF34F8F0649074BCA6802F4E0621343FD
S315080153B0CB60BFF34F8F00BFFDE700BF02020FF0BE
S315080153C000ED00E00400FA0538B504460D4601B1C2
S315080153D018B9372103482DF0A3FD23682B602560F2
S315080153E038BD00BFFC4E050838B504460D4601B167
S315080153F018B9782105482DF093FD23681BB1AB42F6
S3150801540002D12B68236038BD1C46F6E7FC4E050819
S315080154100346054A0549106803448B428CBF4FF081
S31508015420FF301360704700BF881200200000042077
S315080154304FF0BA420123054802F580514B600862D4
S3150801544003490968D160034A1370704701000C1FAC
S315080154508C120020E45A00204FF0BA41074BCA6863
S315080154601A600123064A53604B6813F00203FBD105
S315080154704FF0FF311162034A137070478C120020F6
S315080154800020005DE45A00204FF0BA42D369126A3F
S3150801549010B5134013F0F8501EBF0120114A1070C1
S315080154A0DC070ED54FF0BA410A695007FCD50E4AFA
S315080154B04C691068204410608869516801440120CC
S315080154C05160590341BF08490A6802F180720A60AE
S315080154D01A0341BF04494A6802F180724A60034AC5
S315080154E0D36110BDE55A0020CC3C00200020005DA8
S315080154F00023044A04491370044A05481360054AFF
S3150801550000F0B8B9E55A002059540108D83C0020E2
S31508015510315401088954010808B500F011FA4FF011
S31508015520BA430A4AD969136841F201500B43136019
S315080155304FF47D32064BDA61064B1A78002A4FF092
S31508015540000208BF10461A7008BD00BFD83C0020EB
S315080155500020005DE55A002009230E4A70B5C0F8FF
S3150801556010311368054601330E461360FFF7D4FF61
S31508015570044660B900F0D2F94FF48A722846064902
S3150801558000F0B0F91EB1BDE87040FFF7C5BF20466F
S3150801559070BD00BFD43C00206400005D0729F8B542
S315080155A005460C4610EE107A10EE906A04D940F2C0
S315080155B0071104482DF0B4FC05EB840325F8247083
S315080155C05E80F8BD4A4F05082DE9F84F0429804643
S315080155D00D4693469946BDF82840BDF82C70BDF88E
S315080155E03060DDF838A004D94FF4917134482DF0B4
S315080155F097FCB4F5806F04D940F2231130482DF099
S315080156008FFCB7F5806F04D94FF492712C482DF0B1
S3150801561087FCB6F5806F04D940F2251128482DF08C
S315080156207FFC0D9B03F50063B3F5805F04D34FF44C
S31508015630937123482DF074FC0AF50063B3F5805F76
S3150801564004D340F227111E482DF06AFC0F9B03F57F
S315080156500063B3F5805F04D34FF4947118482DF0B5
S315080156605FFC184B0F9A013E03EA0242C6F309068C
S3150801567016430D9A013C03EA0A4AC4F3090403EAEC
S3150801568002431C43013F4FEA093303F44053C7F36E
S3150801569009071C4347EA0A0708EB051319F0040F23
S315080156A005F10205C3E90A7618BF44F480442B01C3
S315080156B008EB05156C6048F803B0BDE8F88F00BF24
S315080156C04A4F05080000FF0F2DE9F0410729054655
S315080156D00E4614461F469DF8208004D94FF4B5712D
S315080156E00A482DF01DFCDDE9062324051A43B8F105
S315080156F0000F01D044F000440C2303FB0651C1E915
S315080157002C72C1F8B840BDE8F08100BF4A4F0508C0
S315080157102DE9F041072906460C46154698469DF897
S31508015720187004D940F27D1121482DF0F9FB013D8D
S31508015730ABB2B3F5806F04D34FF4BF711C482DF09B
S31508015740EFFBB8F1070F04D940F27F1118482DF085
S31508015750E7FB072F04D94FF4C07115482DF0E0FB7C
S315080157600C21079B06EBC40245EA0335089B15671E
S315080157701B03536701FB0862B845D2F8B8004FEA24
S31508015780440406D10323A3400343C2F8B830BDE855
S31508015790F0810123A3400343C2F8B830022201FB7A
S315080157A00766D6F8B830A2401343C6F8B830EEE714
S315080157B04A4F0508F8B500210C250446D0F874327D
S315080157C000F50976DFF854C0D0F868028B4217DA7B
S315080157D005FB030393F8BB20002142F0800283F8FE
S315080157E0BB20FFF7B9FE4FF48A72D4F86C3283F006
S315080157F00103C4F86C3202FB0343C4F86832F8BDEE
S3150801580005FB0107D7F8B82056F804EF02EA0C029F
S3150801581042EA0E02C7F8B8200131D7E70000FFFFB8
S315080158208B1E012B03D8044B1B6823B1184701298A
S3150801583001D8024BF8E77047F03C0020F43C002001
S3150801584010B52DF0ECFE04460021012008F01EF8E3
S3150801585020462DF0E8FE0022014B1A7010BD00BF4C
S31508015860E65A0020024B03C883E80300002070476C
S31508015870E43C002038B5114C2378EBB9104B114D97
S315080158801960114B28601A604FF080420F4B10487F
S315080158909A66FFF7E7FF4FF400420E4B1A602B6832
S315080158A003B198470C480D4908F0D0F801230020A8
S315080158B023700B4B187038BD1220FCE7E75A0020FD
S315080158C0F03C0020F43C0020EC3C00200090005005
S315080158D0E43C002000E100E0DC3C0020A44F050880
S315080158E0E65A00200B4B10B51B7873B10A4B1B788F
S315080158F06BB1002392089A4201D1002010BD50F8DD
S31508015900234041F823400133F5E71120F6E70E203D
S31508015910F4E700BFE75A0020E65A002010B52DF03B
S315080159207EFE01210446084607F0B0FF20462DF009
S315080159307AFE0122014B1A7010BD00BFE65A0020FB
S31508015940064B1B7843B14FF0BA4213695B07FCD586
S31508015950034A1378002BFCD1704700BFE75A002091
S31508015960E65A002008B5054B1B682BB1984718B1B4
S31508015970BDE80840FFF764BF08BD00BFEC3C002046
S3150801598000487047F83C002000487047F83C002062
S31508015990F0B5044601258C4205D88D4203D800206E
S315080159A015601C60F0BD0020DFF828C01CF8017BDB
S315080159B0B4FBF7F607FB164EBEF1000F05D1B4424C
S315080159C007FB05F504D03446E5E701300B28EDD190
S315080159D00120E5E7AC4F05082DE9F04F174687B0DA
S315080159E004460D469846FFF7CBFF17F1800F06468A
S315080159F002D1B8F17F0F04D0A02D12D82544A542B3
S31508015A0003D1002007B0BDE8F08F94F900309F421A
S31508015A1002DD27700134F2E79845B8BF84F80080A3
S31508015A20F8E74FF0000940F20A2A3B463A460021B8
S31508015A3030462DF079FA43464246012130462DF08B
S31508015A4073FA4B464A4649463046CDE90199CDF89F
S31508015A5000A0FFF739FE40F20B232F4A0121CDE9B9
S31508015A600032304640F2D5122C4BCDF80890FFF79C
S31508015A702BFE01212A4B40F2D512CDE901313046E0
S31508015A800221284BCDF800A0FFF71EFEB5F5006FE1
S31508015A902B4628BF4FF4006323F0030B4FEA5B0A3A
S31508015AA01FFA8AFA2246002130460593CDF800A04E
S31508015AB005232DF05FFA0523224601213046CDF84C
S31508015AC000A02DF057FA0223059A002130460093CB
S31508015AD0CDE901990123C2F38F02FFF719FE0121CE
S31508015AE03046FFF739FD00288CD1A5EB0B059F2D14
S31508015AF05C44CBD8002D84D0254414F9013B9F4240
S31508015B0004DD04F8017CA542F7D17AE79845B8BFC8
S31508015B1004F8018CF7E700BF0000A021000102206C
S31508015B200000B021000103302DE9F04F036895B05C
S31508015B300593436A066D0693836A42680793C36AA7
S31508015B40856B0893036ED0F814B00993C36DD0F82A
S31508015B503C900A938369DFED576A0B9383680BFBC5
S31508015B6001FA0C93036B0D93436C00694B43F41ACA
S31508015B7024EAE474F71A9B1B234453430744AF42B0
S31508015B80A8BF2F46019302FB05F3002502FB00F18E
S31508015B90119302FB04F30E9713911293059B9D42F1
S31508015BA003DB002015B0BDE8F08F00200B9B129E89
S31508015BB053440493584574DB0199139B01351944E1
S31508015BC0DA440191EAE74FF000080C9B734402930B
S31508015BD00D9B63440393904547DB013796449444F0
S31508015BE00E9B9F42EFDBB9F1000F0BD039F810304D
S31508015BF0F2EE677A07EE103AB2EE477A77EE277A2F
S31508015C00F3EE677A089BF2EE677A33F810300130C3
S31508015C1007EE103AB2EE477A67EE277AF3EE677A1D
S31508015C20F2EE677AFDEEE77A17EE901AADF80830CC
S31508015C30099B1944069B9942B8BF1946079B994285
S31508015C40A8BF194607EE901AF8EEE77AF3EE677AD7
S31508015C50F2EE677AFDEEE77A17EE901A049B03F8DF
S31508015C60011B0493119B1E44A4E7029BF2EE677A7B
S31508015C7013F9011B08F101080293039B0F9113F90C
S31508015C80011B109103930F990A9B1944109B5943C1
S31508015C9007EE101AB8EEC77A47EE267AF3EE677A58
S31508015CA099E740F20003B446274607EE903ADDF835
S31508015CB004E095E7000000382DE9F04F2DED048B3F
S31508015CC0436CD3B02B93836D82463793436D90ED26
S31508015CD0178A3893036DD0F840901F93C36C90F8D8
S31508015CE0486014938368C56B3993036B1C913A9387
S31508015CF0C36A3B9340F20003ADF842318369469388
S31508015D0000235193FFF740FE04462EB91F9B149AB0
S31508015D1013431CBF21235193379B012B02D1389B77
S31508015D20012B07D0212351931C9B002B40F099800E
S31508015D305198F9E31C9B002B40F09380519B002B53
S31508015D40F6D1DAF8043020460F93DAF81430DAED92
S31508015D50188A0993DAF80C30BAEEE88A2C93DAF83D
S31508015D603430B3EE488A2093DAF81C302D93DAF8EA
S31508015D7000303C93DAF810301593DAF83830169378
S31508015D80DAF8203017932DF0D4F9209A2C9B002DA0
S31508015D90A3EB0203149A134493FBF9F30D93DDE97C
S31508015DA01532A3EB02031F9A13442B9A93FBF2F3C2
S31508015DB0179A4993099B02FB03F30F9A1393169BB0
S31508015DC002FB03F32493249A209B02FB03F30F9A05
S31508015DD03293159B02FB03F323932B9B02FB03F3DD
S31508015DE04A93239B159A03FB09F34B93BDF8243079
S31508015DF01E9308BF012343930DF5A17318BF2B46C4
S31508015E0047932C9B53430F9A53434C93179A2D9BB5
S31508015E105343099A5343409300230E9340F20023B8
S31508015E2009EE103A0E9B179A93422EDB1C9B002B08
S31508015E303FF47EAFFFF770FB5190002840F0748362
S31508015E403C9B2D9909985943179B9AF92420594344
S31508015E509AF928304143DAF81800FFF7BDFD519049
S31508015E6066E7DDE9393213433B9A2B431343DA07D5
S31508015E7007D52123519340F2031182482DF050F89A
S31508015E8056E7519B002BF6D15BE70E9B2B9A1F9980
S31508015E905A431F9B1698D31A8A1A22EAE272189253
S31508015EA0159A1899D21A9042D4BFC1EB0001C1EBD9
S31508015EB00201002B27DB0E98499D169E9642D8BFF4
S31508015EC028462690269A0E98121A01320A920F9A95
S31508015ED04A4318993192379A01FB02330A993F933B
S31508015EE0DDE94A320129D8BF1346239A2A93134377
S31508015EF0459300230C930C9B2D9A934206DB269B14
S31508015F0001330E938EE70E9A2692DBE70C9B149AC1
S31508015F1009FB03F3991AD31A2C9A209823EAE373F7
S31508015F20521A9042D4BFC3EB0000C3EB020000290A
S31508015F3008907DDB209991427ADCDDE90C12521A30
S31508015F40571C002A79D00A9A012A7CDD814563D03B
S31508015F5044DD012FA9EB000B65DC01260D9A0B9296
S31508015F60BE423246A8BF3A464892139A16997243D8
S31508015F702F92721E22922F9AB2F5006F229AB8BFFB
S31508015F8000222E9201324E92189A03FB01220F9992
S31508015F904A43249911434D910A990129D8BF394693
S31508015FA089B241913A998A1842920C9A149902FB3C
S31508015FB009F2521A389903FB01232F9A2593139B49
S31508015FC0B2F5006FB8BF1346339300231193119BA3
S31508015FD0489A93423ADB0B9B01338BE7089A089957
S31508015FE092FBF9F209FB121B1646BBF1000F0ED004
S31508015FF0012F06F10106A9EB0B0B0ADD0A465A44E5
S3150801600006FB09F191421CBF2822519201E0012F9A
S315080160100CDC0D9A0B92A3E7012F14DD4A460126E3
S315080160204FF0000BECE74A460126E9E7089AE7E74D
S3150801603001270C9A0B92012602E03E460D9A0B9215
S315080160404FF0000B8CE70D9A0B92F4E7119BBB42BC
S31508016050C4BF28235193119BFB1A93FBF6F206FB47
S315080160601233002B18BF0132012A0A9B19920BD150
S31508016070012B47DD00231093109A089B1344199AA4
S31508016080534309E0B74F0508012B38DCBBF1000F74
S3150801609032D1089BCDF840B027934E9A199B159992
S315080160A053433D93199B259A73433093109B013BA8
S315080160B0002B3E93CCBF4FF48773002344933F9B39
S315080160C001FB02330F9A17995343119A1D930C9B9F
S315080160D013440E9A01FB0323099A53431B93002386
S315080160E02893289B3C9A934211DB119B0133119308
S315080160F0259B4B4425936AE728235193C9E7CDF895
S3150801610040B0B9E7089B279300231093C5E72F9B57
S31508016110B3F5006F14DB139BB3F5006F10DB1B9B04
S31508016120002B4FF02803519303DA099B002BC0F289
S31508016130AD81309BDDF888801A93139B129314E086
S315080161401B9BDDF8B880002BBCBF28235193099B04
S31508016150002B3D9B1A93339B129301DA2823519303
S31508016160129B002B01DA28235193DDE931321343BF
S31508016170459A13434D9A13431D9A1343DB0700F1BE
S315080161808C81319B03EBD3735B1029932A9B03EB19
S31508016190D3735B103493239B03EBD372329B521058
S315080161A003EBD3735B103693249B03EBD3735B101A
S315080161B035930123204621934F922CF030FF219BE2
S315080161C00125002B14BF0523012351AAD4F868021F
S315080161D006924F9ABDF8A4100492349A029103923A
S315080161E0BDF89C2034910192419A1D990092399AE1
S315080161F005950A4400214F932CF039FF51ABCDE99F
S315080162000553359BBDF820200493369B01920393D1
S31508016210349B294602931E9B429A0093D4F868023E
S315080162204F9B2CF024FF51AB0193439B479A009354
S315080162300223D4F8680219462CF052FF51AB019398
S315080162401E9B032100933B9A0223D4F868022CF083
S3150801625047FF51ABCDE90553099B1B990493129B43
S31508016260469A03931E9B0A440293BDF828300421DB
S315080162700193BDF868300093D4F868022B462CF0D8
S31508016280F6FEB0EE490A0021D4F868022CF066FE43
S31508016290219B002B00F00C81F0EE480AB0EE480A6B
S315080162A02946D4F86802FFF779F9B8EEE80A002515
S315080162B0B3EE400A0221D4F868022CF04FFE2046BC
S315080162C0099951AA2CF078FE51AB41212046994AE9
S315080162D0019300954EF62C432CF0ADFE20460A9903
S315080162E051AA2CF069FE2046199951AA2CF064FE90
S315080162F02046089951AA2CF05FFE2046299951AAF1
S315080163002CF05AFE51AB40F2CD112046CDE900538F
S31508016310894A8A4B2CF08FFE51AB40F2D711884A35
S315080163202046CDE900532B462CF085FE20462CF05D
S31508016330E9FE0222294620462CF0FFFE022201210F
S3150801634020462CF0FAFE20462CF0DCFE0A9B012B97
S3150801635004DC0122294620462CF0EFFE109B002B77
S3150801636004DD0222002120462CF0E7FE219B002BAA
S3150801637000F0A680109B4A21023B129351AB019370
S315080163800023204600936F4A449B2CF054FE129B2F
S3150801639051AD013B1A93129B40F2CD11002B4FF0E0
S315080163A04F6320460093684ACCBF4FF48773002396
S315080163B001952CF040FEB8F1000F0FDD2A46414643
S315080163C020462CF0F9FD00222046CF2311460195DF
S315080163D000922CF030FE20462CF094FE4FF0000877
S315080163E051AD434641212046524A0195CDF80080D8
S315080163F02CF021FE1A9B012B65D119462A46204607
S315080164002CF0DAFD4346424641462046CDE9008551
S315080164102CF011FE20462CF075FE0222414620463C
S315080164202CF08BFE20462CF06DFE0222042120461C
S315080164302CF083FE0A9B012B04DD01220021204654
S315080164402CF07BFE20462CF05DFE042220461146E8
S315080164502CF073FE0122204611462CF06EFE042212
S31508016460022120462CF069FE0422032120462CF045
S3150801647064FE20462CF046FE519B002B40D01C9B07
S31508016480002B3FF455AC40F26631F6E4309BDDF85B
S3150801649088801A93139B129360E62A9B239A349356
S315080164A0329B3693249B3593319B2993002381E6AE
S315080164B0B0EE480A2946D4F868022CF04FFDF4E6F6
S315080164C03E9B129363E7ADDD129B2A46991E204631
S315080164D02CF072FD2A46204601212CF06DFD42461C
S315080164E0414643462046CDE900852CF0A4FD2046C9
S315080164F02CF008FE0222414620462CF01EFE89E7B2
S315080165001C9B5BB9289B4C9A013328931D9B13440A
S315080165101D93409A1B9B13441B93E2E52046FFF704
S3150801652049F951900028EDD053B0BDEC048BBDE874
S31508016530F08F00BF00000450060001600E7E0800BF
S315080165400607055000000550050302702DE9F04FB6
S315080165502DED048B04468DB040B1D0F82CB0BBF1BB
S31508016560000F05D03621CE482CF0DAFC21208DE12A
S31508016570036ADFEDCC8A13F0010F14BF4FF4806272
S315080165804FF400629A42C0F2EB80FFF7F9F9D4EDB5
S31508016590057AB8EEE78AE36C276A0793B4F85030B0
S315080165A017F0010609EE103AE36B05460593236CCD
S315080165B028EE288A0693BDF814A0BDF8189040F075
S315080165C0B88007EBD7784FEA6807C8F34F08CDE9D3
S315080165D000A80523314622682CF0DCFC052301219D
S315080165E0CDE90098A26928462CF0D4FC226B002A32
S315080165F000F0AE80A38E00930223194628462CF09C
S31508016600B9FCCDE900A90123A26B032128462CF088
S31508016610C1FCDFEDA40A0021B0EE600A28462CF081
S31508016620A3FCF0EE480AB0EE480A012128462CF0F0
S315080166309BFCB0EE490A032128462CF08FFC042165
S315080166402846079A2CF07EFC4FF0000840F22D23CD
S315080166504246414628460093CDE901884346FFF75D
S3150801666033F8914B40F2D712012128460093CDE920
S3150801667001888E4BFFF728F840F2D71202212846E7
S31508016680CDE901888A4BCDF80080FFF71DF8002E69
S3150801669063D14A2203212846CDE90166854B009636
S315080166A0FFF712F84FF0040800264FF0010B824B52
S315080166B05FFA88F840F2D71241462846CDE9013BF0
S315080166C000967E4BFFF700F8334652463146284678
S315080166D0CDE90166CDF80080FFF71AF842F2020308
S315080166E04A4659462846CDE9008302963346FFF7BE
S315080166F00FF8022120232846CDE9001302965B46AE
S31508016700BAB2FFF705F859462846FEF725FF0028CD
S3150801671040F0BC80DDE90510414394F9533094F902
S315080167205220A06B0DB0BDEC048BBDE8F04FFFF70E
S3150801673053B91FFA87F8CDE900A8012359462268FB
S315080167402CF028FC0123CDE900981946A2694AE7ED
S3150801675001235B4A009302234FE74FF00308A3E79F
S31508016760FFF70EF9D4ED057AB8EEE78AB4F850309A
S31508016770054628EE288A09EE103AE36BF0EE680A18
S315080167800793236CB0EE680A59460593E66C276AA7
S315080167902CF0EAFBF0EE480AB0EE480A0121284639
S315080167A02CF0E2FB03212846B0EE490A2CF0D6FB71
S315080167B007F001083246042128462CF0C3FBB8F13C
S315080167C0000F68D1052307EBD770401006934FF4E5
S315080167D080610BAB0AAAFFF7DBF8064600287FF4AF
S315080167E0C5AE314B014640F2D712CDE901000093FF
S315080167F028462E4BFEF768FF40F2D712012128469C
S31508016800CDE901662A4B0096FEF75EFFB8F1000F47
S3150801681044D102214A222846CDE90188254BCDF8E3
S315080168200080FEF751FF032100264FF00108224B95
S3150801683040F2D7122846CDE9013800961F4BFEF7DC
S3150801684043FF334631462846BDF82820CDE901667F
S31508016850CDF80080FEF75CFF22234146CDE900838F
S3150801686028463346BDF82C200296FEF751FFB2465C
S31508016870B346079B5B456EDC0598079994F9533037
S31508016880414394F95220A06BFFF7A6F80DB0BDEC71
S31508016890048BBDE8F08F3846012397E70221C3E749
S315080168A015500508000000380E7E08000600016034
S315080168B006070550000005500000D02305030450C3
S315080168C07C500508A36922684B440893236B32441C
S315080168D0002B3DD033F81830A16B08EE103A08EBBF
S315080168E00A03CB180993BDF82C3000210193BDF892
S315080168F0283028460093069B2CF04CFBBDF82C301B
S3150801690001210193BDF828302846089A0093069B71
S315080169102CF040FB0123099A0093032128462CF009
S3150801692029FBB0EE480A052128462CF017FB012160
S315080169302846FEF711FEB9440028A7D108F1010837
S31508016940059B4345BEDC0BF1010B9A443E4490E797
S3150801695040F20003C0E74FF00009C846F0E700BF60
S3150801696058B1031F9FED137A0020DFED136A9FEDDF
S31508016970136A01EB4202914200D17047D3ED017AC5
S31508016980F8EEE77A67EE877AF4EEE67AF1EE10FA30
S3150801699003F104030CDCF4EE467AF1EE10FA48BF73
S315080169A02120F3EE677A17EE90CA21F802CBE2E7C7
S315080169B02120F6E70000003800E07F4700E07FC7A6
S315080169C02DE9F04F2DED048B0368C7B03893C368E2
S315080169D0D0F804A020930369D0ED098A129383693C
S315080169E090ED089A3193C36990F838502193036C56
S315080169F02C911593C36B1393D0E90CB32293C36AF5
S31508016A002393836A249383683293436933930023D8
S31508016A104593FEF7B9FF0AF0010304461F932DB902
S31508016A20159B139A13431CBF212345931F9B43B9F7
S31508016A302C9B33B1DDE932321343D80744BF2123F6
S31508016A404593459D002D40F0B28320462CF071FBFD
S31508016A50249A209B0D959B1A139A134493FBFBF3D7
S31508016A60239A0C93129B9B1A159A1344229A93FB09
S31508016A70F2F33C930AFB02F32D93129B03FB0AF3F1
S31508016A80199303FB0BF32E93219B199A03FB0AF324
S31508016A901A93199B03F0010335931F9B002B0CBF17
S31508016AA0052301233093129B0BFB03F30AFB03F324
S31508016AB03F93209B02FB03F31A9A3D93319B02FBFA
S31508016AC003F340930CBF02230123109340F20023E2
S31508016AD009EE903A0D9B219A934206DB2C9B13B142
S31508016AE0FEF71AFD4590459850E3229A0D9B239986
S31508016AF05343159A9A1A2592159AD31A23EAE373D8
S31508016B00259A1693129B9B1A169A9942D4BFC2EBE1
S31508016B100102C2EB03022692259A002A2DDB0D9A61
S31508016B203C9923989842D8BF0A461B921B9B0D9AFB
S31508016B309B1A013317932D9BB3F5006FA4BF282326
S31508016B4045932E9BB3F5006F1ADA179B012BCCBF21
S31508016B500023012308930899DDE92D23002908BF9D
S31508016B6013462F9303F0010339930023319A934275
S31508016B7008DB1B9B01330D93ACE70D9B1B93D5E7F4
S31508016B800023E7E70BFB03F21399249D501A8A1A8F
S31508016B90209922EAE272091A8D42D4BFC2EB050591
S31508016BA0C2EB01050995099E269D9FED827A7543DB
S31508016BB007EE905AF8EEE77A87EE278AB3EE488A07
S31508016BC09FED7D7AF2EE487AF4EEC77A9FED7B7AED
S31508016BD0F1EE10FA2795F4EEC77ABCBF282545953C
S31508016BE0F1EE10FA84BF2825459500287BDB249809
S31508016BF0884278DC0C99C91A01F10108002977D075
S31508016C000899002979D109998B4560D044DDB8F1F5
S31508016C10010FABEB010661DC01250C990B9145458A
S31508016C202946A8BF41463B911A99681E6943B1F5A1
S31508016C30006FB8BF002014900130089F3E90179846
S31508016C40002F18BF404680B2369003FB0BF0139F06
S31508016C50C01B0244259F16983844129F07FB02025F
S31508016C600AFB02F221982B920D9A03FB00230AFBD9
S31508016C7003F32A931A9BB1F5006FA8BF194601F0D1
S31508016C8001033A9300231E910F930F9B3B9A93425C
S31508016C903BDB0B9B013369E7099991FBFBF50BFB81
S31508016CA0151676B1B8F1010F05F10105ABEB06062C
S31508016CB00ADD314405FB0BF088421CBF28214591AA
S31508016CC002E0B8F1010F0CDC0C990B91A7E7B8F1BA
S31508016CD0010F15DD59460125089EEBE759460125A1
S31508016CE0E8E70999E6E74FF001080B93012502E069
S31508016CF045460C990B91002691E70C990B91F5E7FE
S31508016D000C990125089E0B9189E70F9B4345C4BF42
S31508016D10282345930F9BA8EB030393FBF5F205FB89
S31508016D201233002B18BF0132012A089B189208D189
S31508016D30002B39D10A93DDE909321344189A5343D2
S31508016D4005E0002B2ED0002E29D1099B0A961C930B
S31508016D503E9A189B53430A9A9BB237930A9B002A79
S31508016D60A3F10203C8BF4FF0FF3334932A9B119353
S31508016D702B9B289300231D931D9B389A934280F2DF
S31508016D800A82BAF1000F40F3B281119B002BBCBFF6
S31508016D9028234593119B299300230E9317E0282353
S31508016DA04593D2E70A96C6E7099B1C9300230A93E3
S31508016DB0CEE700BF0000004700E07FC700E07F473D
S31508016DC00E9B119A9B18299344BF282345931E9B12
S31508016DD00E9A002BBCBF28234593289B9A181F9B04
S31508016DE0D3B90E9B01335345A4BF28234593299B49
S31508016DF0D90744BF28234593D30744BF282345937E
S31508016E00359B0BB128234593399B0BB12823459311
S31508016E103A9B0BB128234593109B43929AFBF3F9AE
S31508016E20109A199B204693FBF2F12F9B429193FBF3
S31508016E30F2F341932CF0F3F8419B42990393BDF881
S31508016E40983045AF0293BDF87030CDE905970193A7
S31508016E50369B0491439A329900930A44309B002148
S31508016E60D4F868022CF003F90023109ACDE90493AB
S31508016E701E9B069793FBF2F301270393BDF85C303B
S31508016E8033990193379B299A009302970A44309BB9
S31508016E903946D4F868022CF0EAF8F0EE480AB0EE62
S31508016EA0480A0021D4F86802FEF778FB40F200236D
S31508016EB0F0EE690A00EE103A3946D4F86802FEF790
S31508016EC06DFB19EE103A803304D118EE903A7F2BF8
S31508016ED000F01981F8EEC90AF3EE600A0421B0EE52
S31508016EE0600AD4F86802FEF759FBF8EEE80AF3EEF1
S31508016EF0600A0521B0EE600AD4F86802FEF74EFB77
S31508016F004FF001092046179945AA2CF055F8204655
S31508016F10189945AA2CF050F845AB019300234FF078
S31508016F2000520093012120462CF085F8279BB3F5E2
S31508016F30007F09DD45AB019300234FF0E0420121B3
S31508016F40204600932CF077F845AF3A462046099932
S31508016F502CF032F83A46204626992CF02DF8279B34
S31508016F600197B3F5007F4FF00003009340F20B231E
S31508016F7040F3CC8040F2D71120468E4A2CF05BF8BC
S31508016F8000234FF4A77120468B4A009301972CF0F2
S31508016F9052F800234FF4E771884A00932046019777
S31508016FA02CF049F800234121854A01970093204690
S31508016FB02CF041F820462CF0A5F8022200212046A3
S31508016FC02CF0BBF820462CF09DF8089B23B1012232
S31508016FD0002120462CF0B1F80A9B002B40F39A8039
S31508016FE00222002120462CF0A8F80A9B012B00F06A
S31508016FF09180B9F1000F14BF00234FF01A630A9A62
S3150801700040F29711971E45AACDE90032204640F273
S315080170100B136C4A2CF00FF8B9F1000F0BD045ABE6
S3150801702001934FF01E6340F2D511009320460023C9
S31508017030654A2CF000F8149B002B1FDD0DF58A79A3
S315080170404A46204614992BF0B7FF4A4601212046A5
S315080170502BF0B2FF002320461A4619460093CDF8B5
S3150801706004902BF0E8FF20462CF04CF8012220462C
S3150801707011462CF062F820462CF044F8002F17DD53
S31508017080012F45AA60D1394620462BF095FF45AB1D
S315080170900193002320461A46194600932BF0CBFF8D
S315080170A020462CF02FF80222002120462CF045F824
S315080170B020462CF027F80222012120462CF03DF823
S315080170C0089B23B90122194620462CF036F820469A
S315080170D02CF018F84598002858D12C9B002B4FD135
S315080170E00E9B109A13449A450E933FF769AE1D9B62
S315080170F03D9A01331D93289B13442893409A119B6B
S315080171001344119338E64FF00009FBE640F2D71114
S315080171102E4A4CE7B9F1000F14BF00234FF01A634A
S3150801712045AACDE9003240F2971100232046254AA7
S315080171302BF081FFB9F1000F04D1149B002BB7DDA9
S31508017140349F7BE7349F6AE70A9B2046D91E2BF0BA
S3150801715033FF204645AA01212BF02EFF45AB0193AB
S31508017160002320461A46194600932BF064FF204651
S315080171702BF0C8FF0222002120462BF0DEFF8FE705
S315080171802046FEF717FB45900028A9D047B0BDEC6D
S31508017190048BBDE8F08F0F9B3F9A01330F932B9B0E
S315080171A013442B931A9A2A9B13442A936DE528466E
S315080171B0ECE700BF0301A7700200073003A2A7701E
S315080171C000000320020000200405026003010220DA
S315080171D02DE9F04F2DED048B0368C1B03293C368D6
S315080171E090ED098A21930369D0ED088A1193836981
S315080171F0D0F804A02A93C36990F838502293036CF7
S3150801720014911693C36B1293D0E90C832393C36A23
S315080172102493836A259383682B9343692C930023CC
S315080172203F93FEF7B1FB0446A5B9169B129A134381
S3150801723010D021233F93149B8BB1DDE92B321343E5
S31508017240DB070ED521233F934FF47B719D482BF025
S3150801725067FE04E0149B002BEFD13F9B23B13F98B7
S31508017260F4E23F9B002BEFD120462BF062FF259AD3
S31508017270219B9B1A129A134493FBF8F3249A0D93B4
S31508017280119B9B1A169A1344239A93FBF2F3349390
S31508017290229B03FB0AF31A93119B03FB0AF3189328
S315080172A00AFB02F33593189B189A08FB03F33693E6
S315080172B0119B03FB08F30AFB03F33893219B534302
S315080172C01A9A39932A9B53432F9300230E934DF60B
S315080172D0000309EE103A0E9B229A934206DB149B91
S315080172E0002BBCD0FEF718F93F90B8E7239A0E9BFE
S315080172F024995343169A9A1A2692169AD31A23EA66
S31508017300E373269A1793119B9B1A179A9942D4BF2E
S31508017310C2EB0102C2EB03022D92269A002A1DDB5B
S315080173200E9A349924989842D8BF0A461D920E9A05
S315080173301D9B9B1A013309930999DDE93532012908
S31508017340D8BF1346189A299313433A9300232A9AC6
S31508017350934206DB1D9B01330E93BCE70E9B1D93DF
S31508017360E5E708FB03F21299259D501A8A1A219915
S3150801737022EAE272091A8D42D4BFC2EB0505C2EBB5
S31508017380010500280A9574DB2598884271DC0D9958
S31508017390C91A4F1C002970D00999012973DDA8451E
S315080173A05BD03FDD012FA8EB05095DDC01250D99B1
S315080173B00B91BD422946A8BF394633911A99681ED1
S315080173C06943B1F5006FB8BF0020159001303B90B5
S315080173D00998129E0128D8BF384680B2309008FB1A
S315080173E003F0801B0244269E17983044119E06FB23
S315080173F002020AFB02F222981C920E9A00FB032350
S315080174000AFB03F328931A9BB1F5006FA8BF194627
S31508017410002320911093109B339A934236DB0B9BE2
S31508017420013394E70A9991FBF8F508FB1519B9F1A7
S31508017430000F0DD0012F05F10105A8EB090909DD9A
S31508017440494405FB08F088421CBF28213F9101E009
S31508017450012F0CDC0D990B91ABE7012F13DD41468A
S3150801746001254FF00009ECE741460125E9E70A99AC
S31508017470E7E701270B93012502E03D460D990B919C
S315080174804FF0000995E70D990B91F4E7109BBB4264
S31508017490C4BF28233F93109BFB1A93FBF5F205FB08
S315080174A01233002B18BF0132012A099B19920BD1FD
S315080174B0012B3DDD4FF0000B0A9B199A5B445343A0
S315080174C009E000BF7E500508012B2FDCB9F1000F3A
S315080174D029D1CB460A9B1E93199B3B9ABBF1000FF8
S315080174E002FB03F39BB23193ABF10203C8BF4FF022
S315080174F0FF333793289B13931C9B1B9300231F93DE
